:020000040800F2
:1000000088060020A90100088B1B0008B51700080E
:10001000891B0008B502000841220008000000000A
:10002000000000000000000000000000771D000834
:100030007503000800000000751D0008791D000808
:10004000C3010008C3010008C3010008C301000880
:10005000C3010008C3010008C3010008C301000870
:10006000C3010008C3010008C3010008C301000860
:10007000C3010008C3010008C3010008C301000850
:10008000C3010008C3010008C3010008000000000C
:10009000000000000000000000000000C301000894
:1000A000C3010008C3010008C3010008C301000820
:1000B000C3010008C3010008C3010008C301000810
:1000C000C3010008C3010008C3010008C301000800
:1000D000C301000835220008C30100080000000029
:1000E000C3010008C3010008C301000800000000AC
:1000F000000000000000000000000000C301000834
:1001000000000000C3010008C3010008C30100088B
:1001100000000000000000000000000000000000DF
:10012000C3010008C3010008B9020008C3010008A8
:10013000C3010008000000000000000000000000F3
:10014000000000000000000000000000C3010008E3
:10015000C3010008C3010008C5020008C30100086C
:10016000C3010008C30100080000000000000000F7
:10017000000000000000000000000000000000007F
:1001800000000000C30100080000000000000000A3
:10019000C3010008DFF80CD000F07AF800480047EF
:1001A000812200088806002006488047064800474C
:1001B000FEE7FEE7FEE7FEE7FEE7FEE7FEE7FEE717
:1001C000FEE7FEE7111E0008950100082DE9F05F2B
:1001D0000546002092469B468846064681464024B6
:1001E0001BE0284641464746224600F041F8534668
:1001F0005A46C01A914110D311461846224600F0C3
:1002000028F82D1A67EB01084F46224601200021ED
:1002100000F01FF817EB00094E41201EA4F1010465
:10022000DFDC484631462A464346BDE8F09FD2B25D
:1002300001E000F8012B491EFBD270470022F6E7CF
:1002400010B513460A4604461946FFF7F0FF20464C
:1002500010BD202A04DB203A00FA02F1002070478A
:100260009140C2F1200320FA03F3194390407047F4
:10027000202A04DB203A21FA02F00021704721FAFB
:1002800002F3D040C2F12002914008431946704762
:10029000064C074D06E0E06840F0010394E80700D3
:1002A00098471034AC42F6D3FFF778FFEC2A0008E9
:1002B0000C2B0008FEE70000014800F0B9B8000070
:1002C000C8000020014800F0B3B800002801002059
:1002D00001681823CAB2103AB2FBF3F2054B6FF370
:1002E0000901032A9B5CC36500D9091D8165084685
:1002F00070470000C422000810B5014600208B6939
:100300008A6A4FF0C07453B1B3F5005F15D072B173
:10031000012A0CD0022A0AD0032A09D104E01AB11A
:10032000012A06D0022A03D1C96AC90100D50120D9
:1003300010BDC96AA142FAD010BD002AF7D0012A27
:10034000F2D0022AF3D0032AF3D010BD30B50468EE
:10035000256825F480252560046863608368402B48
:10036000036803D099600068C26030BD9A6000687D
:10037000C16030BD704772B6FEE72DE9F04104461A
:10038000876D00F0C9FA064694F83500002502286A
:1003900006D08020606584F834500120BDE8F081EB
:1003A0002068016821F0160101602068416921F090
:1003B00080014161206C08B9A06C20B120680168FF
:1003C00021F0080101602068016821F0010101604D
:1003D0000CE000F0A1FA801B052807D920206065F9
:1003E000032084F8350084F83450D7E7206800688B
:1003F000C007EED194F85C103F208840B86001201F
:1004000084F8350084F834500020C7E790F83510A0
:10041000022903D08021416501207047052180F821
:1004200035100068016821F001010160002070476B
:100430002DE9F84304464FF00009CDF800906348D9
:100440004FF41651A56D0068B0FBF1F72E6894F8D3
:100450005C10082000FA01F131420FD021680A68CF
:1004600052070BD50A6822F004020A6094F85C1067
:100470008840A860606D40F00100606594F85C10F1
:100480004FF0010808FA01F0304208D021684969AC
:10049000090604D5A860606D40F00200606594F81C
:1004A0005C1004208840304208D021680968890720
:1004B00004D5A860606D40F00400606594F85C109D
:1004C00010208840304218D021680968090714D5E7
:1004D000A86020680168490304D50068000308D5B6
:1004E000A16C07E00168C90503D4016821F0080187
:1004F0000160216C09B12046884794F85C102020E7
:100500008840304231D021680968C9062DD5A860DD
:1005100094F8350005282068016806D0490347D5BE
:10052000006800031DD4616C1CE021F0160101601D
:100530002068416921F080014161206C08B9A06CFC
:1005400020B12068016821F00801016094F85C1076
:100550003F208840A86084F8358084F83490216D6D
:100560001FE0E16B09B120468847606D00282BD061
:10057000606DC00714D0052084F83500206801683C
:1005800021F0010101600098401C0090B84203D89E
:1005900020680068C007F6D184F8358084F834906C
:1005A000E16C002910D001B02046BDE8F0430847B7
:1005B0000168C905D5D4016821F01001016084F8F3
:1005C000358084F83490CCE7BDE8F8830C00002037
:1005D0002DE9F041044600F09FF906465CB1022087
:1005E00084F83500002584F834502068016821F033
:1005F000010101600DE00120BDE8F08100F08CF9FF
:10060000801B052805D920206065032084F835006B
:10061000F2E720680068C007F0D12268116820481E
:100620000140D4E901031843D4E9033633431843A6
:1006300063691843A3691843E3691843236A18439D
:100640000843616A042903D1D4E90B131943084311
:10065000106020684069666A20F0070130460E434A
:10066000012704280CD1A06A0643E06A40B1204665
:10067000FFF742FE20B14020606584F83570BAE78C
:10068000206846612046FFF723FE94F85C203F2156
:1006900091408160656584F835700020ACE700000A
:1006A0003F8010F02DE9F0410446866D90F834004B
:1006B000002501280DD0012084F8340094F835700D
:1006C0000020012F07D084F8340002252846BDE819
:1006D000F0810220FBE7022784F835706065204630
:1006E000FFF734FE94F85C103F208840B06020682B
:1006F000016841F016010160206C20B1206801689A
:1007000041F0080101602068016841F001010160C9
:10071000DCE7000070B5044600F0FEF80546601CFA
:1007200002D004480078044400F0F6F8401BA042D0
:10073000FAD370BD000000202DE9F84FDFF8B8A112
:100740000022012403254FF00F090AF1040BAAF13E
:10075000040E00BF0B6804FA02F63340B34273D1B3
:100760000F7907F00307012F01D0022F16D18768F8
:100770004FEA420805FA08FC27EA0C07D1F80CC03A
:100780000CFA08FC4CEA070CC0F808C04768B743ED
:100790000E79C6F3001696403E4346600E79F64346
:1007A000B6070DD0C768560005FA06FC27EA0C0705
:1007B000D1F808C00CFA06FC4CEA070CC0F80CC0D3
:1007C0000E7906F00306022E10D1D60800EB86083B
:1007D000D8F8206057074FEAD76C09FA0CF7BE43E8
:1007E0000F6907FA0CF73743C8F8207006684FEA1C
:1007F000420C05FA0CF7BE430F7907F0030707FA1E
:100800000CF7374307604E6816F4403F6DD03B4EFF
:10081000376847F480473760366822F0030706F4EC
:1008200080460096364E07EB060CDCF80868970702
:100830003F0F09FA07F826EA0806DFF8C8804045A6
:1008400003D14FF000081EE04FE0DFF8BC804045C8
:1008500002D14FF0010816E0DFF8B080404502D128
:100860004FF002080FE0DFF8A880404502D14FF0BA
:10087000030808E0DFF89C80404502D14FF00408EF
:1008800001E04FF0070808FA07F848EA0608CCF834
:100890000888DAF800605746D1F804C09E435FEA42
:1008A000CC2C00D51E433E60DBF800605F46D1F8DB
:1008B00004C09E435FEA8C2C00D51E433E60DEF8E8
:1008C00000607746D1F804C09E435FEA8C3C00D5B7
:1008D0001E433E60084F083F3E68D1F804C09E4367
:1008E0005FEACC3C00D51E433E60521C102AFFF448
:1008F00031AFBDE8F88F0000083C014044380240A9
:1009000000300140000002400004024000080240A4
:10091000000C02400010024001488068704700004F
:100920000000002070B5040025D094F83D0000259B
:1009300020B984F83C50204600F050F9242084F877
:100940003D002068016821F0010101602068016814
:1009500041F4004101602068016821F40041016018
:1009600000F0A4FA4D4A6168914201D84C4900E078
:100970004C49884201D2012070BD4B492368B0FB2D
:10098000F1F15E6826F03F060E435E6063689342B5
:1009900006D94FF4967359434FF47A73B1FBF3F1D0
:1009A0002368491C1E6A26F03F06314319626168BC
:1009B000914210D84900401EB0FBF1F2521CC2F324
:1009C0000B02042A01D2042022E0B0FBF1F0401C0B
:1009D000C0F30B001CE0A268F2B301EBC10303EB10
:1009E0000116431EB3FBF6F35B1C43F480431B0567
:1009F00049D092B301EBC10202EB0111401EB0FBE2
:100A0000F1F0401CC0F30B0040F4804040F4004083
:100A10002168CA694CF6FF739A431043C861D4E950
:100A2000071001432068026822F0C00211430160F0
:100A3000D4E9030101432068826848F2FF339A43F6
:100A400011438160D4E9050108432168CA6822F096
:100A5000FF021043C86001E00EE016E02068016864
:100A600041F0010101602564202084F83D002563E8
:100A700084F83E50002070BD01EB4106431EB3FBDD
:100A8000F6F35B1CB3E70120C2E701EB4101401E16
:100A9000B0FBF1F0401CC0F30B00B7E7A0860100EB
:100AA00080841E0000093D0040420F002DE9FF4FE9
:100AB00083B09A46DDE9119793460446DDF84080FD
:100AC000FFF72AFF054694F83D0020287FD119231F
:100AD000012240492046009500F004FF002876D10D
:100AE00094F83C00012872D0012084F83C00206872
:100AF0000168C90703D1016841F001010160206864
:100B0000016821F400610160212084F83D0040204B
:100B100084F83E0000262664C4F82480A4F82A90B5
:100B2000608D20852C48E062CDE9007553465A4619
:100B30002046049900F056FE70B930E02A46394646
:100B4000204600F075FF58B1206C042804D12068BD
:100B5000016841F400710160012007B0BDE8F08F29
:100B6000606A216800780861606A401C6062218DBB
:100B7000491E89B22185628D521E628522685369A1
:100B8000DB435B070BD469B100781061606A401CDD
:100B90006062208D401E2085608D401E6085208D06
:100BA0000028CBD12A463946204600F06FFE0028A7
:100BB000CAD154F83D0B016841F400710160202056
:100BC00004F81E09E67766770020C6E7FFE70220F3
:100BD000C3E70000020010000000FFFF10B586B060
:100BE000044614216846FFF729FB13492068884210
:100BF00020D112480021026842F00202026000681F
:100C000000F002000590C02000901220CDE9010103
:100C1000032003900420049069460948FFF78CFDE7
:100C200006481030016841F400110160006800F4CA
:100C30000010059006B010BD00540040303802404E
:100C400000040240024881680278114481607047C4
:100C5000000000200B4810B5016841F400710160EC
:100C6000016841F480610160016841F480710160B4
:100C7000032000F06FF80F2000F006F800F024F8D1
:100C8000002010BD003C024070B50D4D04464FF4ED
:100C90007A712878B1FBF0F00A490968B1FBF0F0ED
:100CA00000F00CFB48B9102C07D200222146501E40
:100CB00000F030F800206C6070BD012070BD0000B5
:100CC000000000200C0000200A4808B5016841F42B
:100CD00080410160006800F4804000900548001FDA
:100CE000016841F080510160006800F08050009080
:100CF00008BD000044380240002809DB00F01F0254
:100D0000012191404009800000F1E020C0F800116D
:100D100070470000F0B40E4B1B680C46C3F302236F
:100D2000C3F10705042D00D90425191D072901D297
:100D3000002300E0DB1E012606FA05F1491E2140D2
:100D400099409E40761E16403143F0BC01F079BABE
:100D50000CED00E0064900F0070208684FF6FF03BB
:100D6000184040EA0220034A104308607047000020
:100D70000CED00E00000FA052DE9F0470E460500F5
:100D800065D0DFF81481D8F80000F7B200F0070052
:100D9000B04207D288F80070D8F8000000F00700D1
:100DA000B04254D128683D4C810712D5400703D585
:100DB000206840F4E05020602878000703D52068C0
:100DC00040F4604020602068A96820F0F0000843EB
:100DD00020602878C0072DD030496868083901287C
:100DE00012D0022813D0032811D0096889070029DE
:100DF0002DDA216821F0030101432160FFF78CFD0A
:100E0000814641F2883A0EE009688903EFE70968F4
:100E10008901ECE7FFF780FDA0EB0901514502D9FC
:100E20000320BDE8F0872068696800F00C00B0EB93
:100E3000810FEFD1D8F80010404601F00701B14210
:100E400007D90770006800F00700B04201D0012008
:100E5000E7E72878400705D52068E96820F4E050E6
:100E6000084320602878000706D52068296920F407
:100E7000604040EAC100206000F038F82168084A6C
:100E8000C1F30311515CC840064908600648006878
:100E9000FFF7FAFE0020C4E7003C02400838024099
:100EA000CC2200080C000020040000200448054962
:100EB00000680968044AC1F38221515CC840704748
:100EC0000C00002008380240DC22000804480549D4
:100ED00000680968044AC1F34231515CC840704758
:100EE0000C00002008380240DC220008154810B52C
:100EF000006810F00C02144813D01449042A0FD0D3
:100F0000082A0ED10F4C241F2268236802F03F02EA
:100F10005B0207D52068C0F38810A0FB010106E042
:100F2000084610BD2168C1F38811A1FB0001002310
:100F3000FFF74CF92168C1F30141491C4900B0FB9E
:100F4000F1F010BD083802400024F40040787D0123
:100F50002DE9F84F04006ED02078DFF84C93C007DD
:100F6000A9F104054AD009F104000168C1F3810127
:100F7000012908D00068C0F3810002280AD1D9F8FD
:100F80000000400206D52868800337D56068002835
:100F9000E1D033E06068B0F5803F10D0B0F5A02F0D
:100FA000286810D020F480302860286820F4802041
:100FB00028606068A8B1FFF7AFFC06460DE028681E
:100FC00040F48030F4E740F480202860F7E700BF69
:100FD000FFF7A2FC801B642873D828688003F7D52C
:100FE0000CE0FFF799FC064605E000BFFFF794FC14
:100FF000801B6428F0D828688003F7D42078DFF8B5
:10100000AC8280074FF0000A3ED5A748001D01685A
:1010100011F00C0F08D00068C0F3810002280BD13A
:10102000D9F80000400207D42868800716D5E06888
:10103000012800D112E033E1E068B8B10120C8F81E
:101040000000FFF769FC064605E000BFFFF764FCFF
:10105000801B0228C0D828688007F7D52868216936
:1010600020F0F80040EAC10028600DE0C8F800A0B8
:10107000FFF752FC064604E0FFF74EFC801B0228F7
:101080001FD828688007F7D42078000722D5864F1C
:1010900087486169703771B101210160FFF73CFC3D
:1010A000064604E0FFF738FC801B022809D83868A0
:1010B0008007F7D50EE0C0F800A0FFF72DFC06462C
:1010C00005E082E0FFF728FC801B02287DD8386805
:1010D0008007F7D42078400768D5DFF8CCB1002727
:1010E0000BF13C0BDBF80000C0000BD4DBF8001068
:1010F00041F08051CBF80010DBF80000012700F030
:10110000805000906B4E3068C00510D4306840F4B9
:1011100080703060FFF700FC009005E0FFF7FCFBFB
:101120000099401A022850D83068C005F6D55E4EA6
:10113000A0686C3601280FD00528306810D020F048
:1011400001003060306820F004003060A068B8B161
:10115000FFF7E2FB00900FE0306840F00100F4E799
:1011600040F004003060F7E7FFF7D6FB0099411A22
:1011700041F28830814266D830688007F4D50EE0AD
:10118000FFF7CAFB009007E0FFF7C6FB0099411A82
:1011900041F28830814256D830688007F4D42FB1AC
:1011A000DBF8001021F08051CBF80010A069C8B323
:1011B0003D49091D0968C1F3810102294AD002286D
:1011C000504607D0C8F8600000E03CE0FFF7A4FB01
:1011D00004463BE04746C8F86000FFF79DFB064623
:1011E00005E000BFFFF798FB801B02282BD828687A
:1011F0008001F7D4D4E907010843A16A2E4A4908BF
:1012000002EB0141626A41EA8211084394F82C1012
:1012100040EA0161C9F8001001203866FFF77CFB45
:10122000044606E03EE000BFFFF776FB001B022805
:1012300009D828688001F7D534E000BFFFF76CFBC0
:10124000001B022802D90320BDE8F88F286880011E
:10125000F4D427E00128F7D0D9F80000E26900F4BF
:10126000800191421CD1226A00F03F01914217D1C6
:1012700047F6C071626A0140B1EB821F10D1A26AC9
:101280004FF0FF3300F4403103EB5202B1EB024F59
:1012900006D194F82C1000F07060B0EB016F01D013
:1012A0000120D1E70020CFE7043802400000474288
:1012B000800E4742007000400000FFFF10B5401E46
:1012C000B0F1807F01D3012010BD4FF0E0246061B8
:1012D0000F21601700F0B5FF0020A06107202061FA
:1012E000002010BD38B5044690F84200202801D0F7
:1012F000022038BD61B15AB1012020630020606333
:10130000204600F04FFF0028F3D1216B012901D0C6
:10131000012038BD21680A684968009121680C31B4
:1013200051E8002F42F0100241E80023002BF5D1D4
:1013300038BD000010B50C4B02689A4212D1426BC6
:10134000022A02D0406B00280CD10A4607490848FF
:1013500000F0F2F9BDE810404FF4807203490448F0
:10136000FFF7C0BF10BD0000001001408801002041
:101370008000002070470000F8B501680446086846
:10138000CA684B6910F00F0F4FF0000559D003F0F9
:10139000010602F49077374365D0C10705D0D10527
:1013A00003D5616C41F001016164410705D5D9079E
:1013B00003D0616C41F002016164810705D5D90752
:1013C00003D0616C41F004016164010707D502F0AC
:1013D0002001314303D0616C41F008016164616C0C
:1013E00000293AD0800604D5900602D5204600F0A8
:1013F000F1FD20684069616CC0F38010090700D4DA
:1014000060B3204600F0B1FD20684069400621D558
:101410002068143050E8001F21F0400140E800121D
:10142000002AF5D1E06BA8B16E490165E06BFEF7CB
:10143000EDFF002811D0E06B016D01B0BDE8F04078
:10144000084783060FD593060DD52046BDE8F84022
:1014500000F0C0BD2046FFF78DFFF8BD2046FFF726
:1014600089FF6564F8BD266B2023012E7DD1C60659
:101470007BD5D60679D508684868009048694FF052
:101480000206400641D5E16B086840680004000C84
:10149000E8D0A28D8242E5D9E085C869B0F5807FA9
:1014A0002DD020680C3050E8001F21F4807140E8F6
:1014B0000012002AF5D12068143050E8001F21F0F6
:1014C000010140E80012002AF5D12068143050E8EC
:1014D000001F21F0400140E80012002AF5D184F8F5
:1014E0004230256320680C3050E8001F21F01001C5
:1014F00040E80012002AF5D1E06BFEF73EFF66637C
:10150000A08DE18D401A81B22AE0A08DE18D401AB4
:1015100081B2E08D0028A5D00029A3D022680C322A
:1015200052E8000F20F4907042E80007002FF5D138
:101530002068143050E8002F22F0010240E8002714
:10154000002FF5D184F84230256320680C3050E834
:10155000002F22F0100240E80023002BF5D1666333
:101560002046FFF7E7FEF8BDFFE705062BD5150679
:1015700029D594F841002128F5D1A068B0F5805F05
:1015800001D12069B0B1206A411C21622168007834
:101590004860E08C401E0004000CE084E3D1206829
:1015A000C16821F08001C1602068C16841F040013C
:1015B000C160D8E7206A0088C0F308004860206A4C
:1015C000801C2062E5E74006CDD55006CBD5CA6821
:1015D000204622F04002CA6084F8413000F0E8F86A
:1015E000C1E70000211E000870B5040004D094F883
:1015F0004100002510B106E0012070BD84F8405084
:10160000204600F023F8242084F841002068C168B7
:1016100021F40051C160204600F03EFD20680169C0
:1016200021F4904101612068416921F02A01416162
:101630002068C16841F40051C1606564202084F8CD
:10164000410084F842006563002070BD2DE9F0413F
:1016500086B0064614216846FEF7F0FD3049306832
:10166000884259D12F480024016841F010010160DF
:10167000006800F0100005902A481438016841F015
:10168000010101600068694600F0010005904FF417
:10169000C06000900220CDE90104032003900720E0
:1016A00004902148FFF748F8214D20484FF000678B
:1016B0002860C5E901744FF48068C5E903486C618E
:1016C000AC61EC612C6228466C62FEF781FF08B1C8
:1016D000FEF751FEF563AE63154D14486035783062
:1016E000E5E802074020A5E81101114845F8144932
:1016F0006030AC61EC612C626C62FEF769FF08B18E
:10170000FEF739FEB563002211462520AE63FFF7D0
:1017100001FB2520FFF7F0FA06B0BDE8F0810000DC
:101720000010014044380240000002404064024082
:10173000C80000207047704770B5044690F841001B
:10174000202801D0022070BD49B342B32162A28497
:10175000E28400206064212384F84130A56B114BA2
:10176000EB63A56B104B2B64A56B104BEB64A36B69
:101770001865256813462A1DA06BFEF793FF2168A4
:101780006FF0400008602068143050E8001F41F0FE
:10179000800140E80012002AF5D1002070BD012030
:1017A00070BD00001F1F0008611F0008311E0008E7
:1017B00070477047FEE701684A69D24352050FD46B
:1017C0006FF480624A61002140F8301F202242738A
:1017D0008173026942F004020261017301207047C3
:1017E000002070472DE9F843044600680D46DDE906
:1017F000089701689846164641F4807101604B468F
:1018000000224FF001112046009700F06BF848B11C
:1018100020680068C00502D54FF4007020640320E2
:10182000BDE8F883216805F0FE0008613B464A46A2
:101830001549204600F09EF888B920684169806902
:1018400000903A464946204600F0F2F848B1206C34
:10185000042804D12068016841F40071016001206E
:10186000DEE7F5B2B8F1010F09D02168300A08614E
:101870003A464946204600F0DBF80028E7D12068C8
:1018800005610020CCE700000200010070B516469B
:101890000D4604461EE02046FFF78DFF08B10120EB
:1018A00070BD681C16D0FFF737F8801BA84200D81F
:1018B00085B920684069C04340070BD5002044F833
:1018C000300F20216173A073216941F02001216153
:1018D0002073E4E720684069C0434007DBD4002060
:1018E00070BD00002DE9F047984617460D460446A6
:1018F000C1F30746DDF820902AE000BFB8F1FF3FB2
:1019000026D0FFF709F8A0EB0901414502D8B8F14C
:10191000000F1DD12068012E16D0806925EA000035
:101920000004000C12D00020B84211D1002044F86D
:10193000300F20216173A073216941F020012161E2
:1019400020730120BDE8F0874069E7E70120EBE75D
:101950002068012E0AD0806925EA00000004000CEE
:1019600006D00020B842C9D00020EBE74069F3E779
:101970000120F7E72DE9F047984616460D46044644
:101980004FF000094FF0200AC1F3074723E0206819
:101990004069C043400515D42068016841F40071D6
:1019A000016021686FF480604861C4F8309084F869
:1019B0003DA084F83E90216C41F00401216484F83C
:1019C0003C9021E0701C06D0FEF7A6FFA0EB0800BB
:1019D000B04203D816B1012F1FD021E02068012F9B
:1019E00015D0806925EA00000004000C18D000BF63
:1019F00044F8309F84F80DA084F80E90216941F0DE
:101A00002001216184F80C900120BDE8F087406935
:101A100025EA00000004000CEAD12068406901E0DA
:101A20002068806925EA00000004000CAFD1ECE7D3
:101A300070B516460D4604461EE02046FFF7BBFE75
:101A400008B1012070BD681C16D0FEF765FF801B31
:101A5000A84200D885B920684069C04300060BD56C
:101A6000002044F8300F20216173A073216941F0F8
:101A7000200121612073E4E720684069C04300062B
:101A8000DBD4002070BD00000D4808B5016841F4AA
:101A9000800101600068002200F48000009011467F
:101AA0003A20FFF737F93A20FFF726F900221146CE
:101AB0004620FFF72FF9BDE808404620FFF71CB984
:101AC00030380240114808B5016841F00401016056
:101AD000016801F004010091016841F0800101609A
:101AE000016801F080010091016841F0010101608D
:101AF000016801F001010091016841F002010160FB
:101B0000006800F00200009008BD0000303802407C
:101B10000D4810B50B4901600C49416000214FF49C
:101B200080428160C0E9031241618161C16101624B
:101B3000FEF7F8FE002803D0BDE81040FEF71BBCFE
:101B400010BD0000005400402C000020A0860100C1
:101B50000C4810B50A4901604FF4E13141600021A1
:101B600081600C22C160C0E904128161C161FFF78C
:101B70003BFD002803D0BDE81040FEF7FCBB10BDC4
:101B80000010014080000020FEE7FEE770B5002451
:101B900004F1B000C0B200F0C5F8002000F0C2F8B7
:101BA000102000F0BFF80025002000F0CFF86D1CD9
:101BB000EDB2802DF8D3641CE4B2082CE8D370BDDC
:101BC0002DE9FE43104D28600A20FEF7A3FD0024F6
:101BD0004FF48076012705F1040800BF08EB0400EC
:101BE000CDE9000702960123002278212868FEF73C
:101BF0005DFF641CE4B2172CF0D30A20FEF78AFDC7
:101C0000BDE8FE43FFF7C2BF1000002010B5044638
:101C1000B031C8B200F086F8102040EA141000F08D
:101C200081F804F00F00BDE8104000F07BB8000020
:101C30002DE9F047203A0024089E0F468146D5B290
:101C40007F2803D900208F1C8146FFB2102B394614
:101C500012D0FFF7DBFF1B4905EB450001EB400508
:101C6000285D0EB1C043C0B200F070F8641CE4B24D
:101C7000062CF5D3BDE8F087FFF7C8FFDFF84880F2
:101C800004EB051118F801000EB1C043C0B200F01A
:101C90005DF8641CE4B2082CF2D37F1CF9B248460C
:101CA000FFF7B4FF0024474604EB05103844007AE0
:101CB0000EB1C043C0B200F049F8641CE4B2082C75
:101CC000F2D3D7E7E42200080C2500082DE9F843F9
:101CD0001E461746894604460025DDF8208014E09C
:101CE000334649462046CDF80080FFF7A1FF0C2E71
:101CF00010D00834E4B27A2C01D90C2E0CD0782CF8
:101D000001D9102E08D06D1CEDB27A5D002AE7D102
:101D1000BDE8F883A41DEDE709F10100002400F0FF
:101D2000FF09F0E701B584B001214FF4807204A8E7
:101D30008DE8070004480B46002278210068FEF772
:101D4000B5FE05B000BD00001000002001B584B054
:101D500001214FF4807204A88DE8070004480B4667
:101D6000402278210068FEF7A1FE05B000BD00000A
:101D70001000002070477047FEF764BF30B593B085
:101D800030216846FEF75AFA14210CA8FEF756FADD
:101D90001D480024016841F080510160006800F096
:101DA000805011901948016821F4404141F40041EC
:101DB00001600068022500F440401190012003906A
:101DC00010200490009506950820CDE90740542086
:101DD000CDE9090504200B906846FFF7B9F808B172
:101DE00072B6FEE70F20CDE90C054FF48050CDE927
:101DF0000E4002210CA81094FEF7BEFF002801D06F
:101E000072B6FEE713B030BD4038024000700040AB
:101E10000248016841F470010160704788ED00E0FC
:101E200010B5806B0021C185C184FFF7A3FA10BDF6
:101E300070B5846B2068406994F84110C0F3C010FD
:101E40000025212904D118B1E584204600F0B4F81A
:101E50002068406994F84210C0F38010222904D110
:101E600018B1E585204600F080F8606C40F0100065
:101E700060642046FFF77EFA70BD10B50146806BA6
:101E8000096809684FF00002C9052ED4C2850168AF
:101E90000C3151E8003F23F4807341E80034002CFA
:101EA000F5D10168143151E8003F23F0010341E806
:101EB0000034002CF5D10168143151E8003F23F0C3
:101EC000400341E80034002CF5D1202180F8421075
:101ED000016B012909D101680C3151E8003F23F061
:101EE000100341E80034002CF5D14263016B012955
:101EF00002D0FFF71FFC10BD818DFFF71BFA10BD4C
:101F000010B5806B01214163016B012902D0FFF7FD
:101F100012FC10BD818D4908FFF70CFA10BD10B5F9
:101F20000146806B09680968C90516D40021C1847F
:101F30000168143151E8002F22F0800241E80023AB
:101F4000002BF5D101680C3151E8002F42F040021E
:101F500041E80023002BF5D110BDFFF729FC10BD8F
:101F600010B5806BFFF725FC10BD01680C3151E8FE
:101F7000002F22F4907241E80023002BF5D1016874
:101F8000143151E8002F22F0010241E80023002B18
:101F9000F5D1016B012909D101680C3151E8002FFD
:101FA00022F0100241E80023002BF5D1202180F817
:101FB000421000210163704701680C3151E8002F85
:101FC00022F0C00241E80023002BF5D1202180F847
:101FD0004110704708B590F84210222901D0022024
:101FE00008BD82684FF480539A4201D1016921B142
:101FF000816A9A421BD04AB10AE00268816A52683B
:10200000C2F308020A80816A891C08E0026972B181
:102010000268526802F07F020A70816A491C81627C
:10202000C18D491E0904090CC18503D01BE002685B
:102030005268F1E70168CA6822F02002CA600168AC
:10204000CA6822F48072CA6001684A6922F00102FB
:102050004A61202180F8421000214163026B012A6D
:1020600003D0FFF767FB002008BD016301680C3156
:1020700051E8002F22F0100241E80023002BF5D197
:1020800001680A68D20602D50A6849680091818D04
:10209000FFF750F9E7E7000070B5044600680169F2
:1020A000E26821F44051114301612169A068E269AD
:1020B00008436169114308432168CA6849F20C6307
:1020C0009A430243CA6020684169A26921F44071C1
:1020D0001143416131492068884202D03049884229
:1020E00002D1FEF7F3FE01E0FEF7E0FEE269002315
:1020F000192164253226B2F5004F626828D0A0FB72
:102100000101930F9200FEF761F80146B0FBF5F074
:102110006FF01802504301EB800006EB0010B0FB9B
:10212000F5F000F0F002B1FBF5F002EB0012B1FBAC
:10213000F5F06FF01803584301EB800006EB001038
:10214000B0FBF5F000F00F0021681044886070BD0E
:10215000A0FB010192185B41FEF738F80146B0FB85
:10216000F5F00201B1FBF5F06FF01803584301EBF5
:10217000800006EBC000B0FBF5F000F0F80002EBC9
:102180004002B1FBF5F0584301EB800006EBC000C4
:10219000B0FBF5F000F00700D6E7000000100140AA
:1021A0000014014038B58162044682850020134640
:1021B0006064222284F84220E56B1B4AEA63E56BE7
:1021C0001A4A2A64E56B1A4AEA64E26B10650A4609
:1021D0002168E06B091DFEF765FA20680168406818
:1021E0000090206948B120680C3050E8001F41F48D
:1021F000807140E80012002AF5D12068143050E8C0
:10220000001F41F0010140E80012002AF5D12068CA
:10221000143050E8001F41F0400140E80012002A4D
:10222000F5D1002038BD00007B1E0008011F00080A
:10223000311E00080148FFF79FB800008000002011
:10224000FEE70907090E002804DB00F1E02080F812
:102250000014704700F00F0000F1E02080F8141D1A
:10226000704702E008C8121F08C1002AFAD170475F
:102270007047002001E001C1121F002AFBD1704706
:1022800008B5FEF7E7FCFFF779FDFFF71BFCFFF74A
:10229000FBFBFFF73DFCFFF75BFC0748FFF790FCFB
:1022A0003220FEF737FA002001210090102303A20C
:1022B0000846FFF70BFDFEE72C00002048656C6C1C
:1022C0006F00000000061016000610160000000047
:1022D00000000000010203040607080900000000D6
:1022E000010203040000000000000000002F0000B5
:1022F00000000700070000147F147F1400242A7FC9
:102300002A12006264081323003649552250000047
:102310000503000000001C224100000041221C00B7
:102320000014083E08140008083E0808000000A039
:102330006000000808080808000060600000002035
:1023400010080402003E5149453E0000427F400013
:10235000004261514946002141454B310018141299
:102360007F10002745454539003C4A494930000166
:102370007109050300364949493600064949291EB5
:102380000000363600000000563600000008142217
:102390004100001414141414000041221408000217
:1023A0000151090600324959513E007C1211127C3C
:1023B000007F49494936003E41414122007F414169
:1023C000221C007F49494941007F09090901003E5B
:1023D0004149497A007F0808087F0000417F410099
:1023E000002040413F01007F08142241007F40400F
:1023F0004040007F020C027F007F0408107F003EF7
:102400004141413E007F09090906003E4151215EDC
:10241000007F091929460046494949310001017FD9
:102420000101003F4040403F001F2040201F003F6F
:102430004038403F00631408146300070870080721
:1024400000615149454300007F41410000552A5534
:102450002A55000041417F000004020102040040AF
:1024600040404040000001020400002054545478D1
:10247000007F4844443800384444442000384444F1
:10248000487F00385454541800087E09010200188F
:10249000A4A4A47C007F080404780000447D4000CC
:1024A000004080847D00007F102844000000417FB0
:1024B0004000007C04180478007C0804047800388C
:1024C0004444443800FC242424180018242418FC14
:1024D000007C0804040800485454542000043F447D
:1024E0004020003C4040207C001C2040201C003C40
:1024F0004030403C004428102844001CA0A0A07C90
:10250000004464544C4414141414141400000000C7
:10251000000000000000000000000000000000F8C3
:1025200000000000000000333000000000100C0626
:10253000100C0600000000000000000040C07840C1
:10254000C0784000043F04043F040400007088FC8D
:1025500008300000001820FF211E0000F008F000E5
:10256000E018000000211C031E211E0000F0088856
:10257000700000001E2123241927211010160E00C0
:10258000000000000000000000000000000000E06B
:102590001804020000000007182040000002041880
:1025A000E00000000040201807000000404080F0DC
:1025B000804040000202010F01020200000000F012
:1025C000000000000101011F0101010000000000E6
:1025D0000000000080B0700000000000000000005B
:1025E00000000000000101010101010100000000E4
:1025F000000000000030300000000000000000007B
:1026000080601804006018060100000000E0100857
:102610000810E000000F102020100F00001010F82C
:10262000000000000020203F20200000007008086B
:1026300008887000003028242221300000300888EB
:10264000884830000018202020110E000000C02013
:1026500010F8000000070424243F240000F8088834
:10266000880808000019212020110E0000E01088C1
:1026700088180000000F112020110E0000380808F3
:10268000C83808000000003F000000000070880803
:1026900008887000001C222121221C0000E0100884
:1026A0000810E0000000312222110F00000000C0DD
:1026B000C00000000000003030000000000000807A
:1026C000000000000000806000000000000080406A
:1026D0002010080000010204081020004040404083
:1026E00040404000040404040404040000081020D6
:1026F000408000000020100804020100007048081B
:102700000808F0000000003036010000C030C82882
:10271000E810E0000718272423140B000000C0383D
:10272000E0000000203C23020227382008F88888B7
:1027300088700000203F202020110E00C0300808C3
:1027400008083800071820202010080008F808089A
:102750000810E000203F202020100F0008F8888893
:10276000E8081000203F20202320180008F888885F
:10277000E8081000203F200003000000C0300808D7
:102780000838000007182020221E020008F8080060
:102790000008F808203F210101213F20000808F827
:1027A000080800000020203F20200000000008084A
:1027B000F8080800C08080807F00000008F888C00A
:1027C00028180800203F20012638200008F80800BB
:1027D00000000000203F20202020300008F8F800F2
:1027E000F8F80800203F003F003F200008F830C004
:1027F0000008F808203F200007183F00E0100808F4
:102800000810E0000F10202020100F0008F8080822
:102810000808F000203F210101010000E010080835
:102820000810E0000F18242438504F0008F888885A
:1028300088887000203F2000030C3020007088083A
:10284000080838000038202121221C00180808F848
:10285000080818000000203F2000000008F80800C9
:102860000008F808001F202020201F00087888009A
:1028700000C83808000007380E010000F80800F80A
:102880000008F800033C0700073C030008186880B4
:102890008068180820302C03032C30200838C8002A
:1028A000C83808000000203F200000001008080879
:1028B000C83808002038262120201800000000FE1B
:1028C000020202000000007F40404000000C30C0C7
:1028D00000000000000000010638C00000020202F3
:1028E000FE000000004040407F00000000000402A5
:1028F00002020400000000000000000000000000D0
:1029000000000000808080808080808000020204BF
:1029100000000000000000000000000000008080B7
:10292000808000000019242222223F2008F8008025
:1029300080000000003F112020110E0000000080E8
:1029400080800000000E1120202011000000008077
:102950008088F800000E112020103F2000008080A9
:1029600080800000001F222222221300008080F0BD
:10297000888888180020203F2020000000008080E8
:1029800080808000006B94949493600008F800802D
:1029900080800000203F210000203F200080989888
:1029A000000000000020203F2020000000000080E8
:1029B0009898000000C08080807F000008F8000028
:1029C00080808000203F24022D302000000808F87D
:1029D000000000000020203F202000008080808038
:1029E00080808000203F20003F20003F80800080CA
:1029F00080800000203F210000203F2000008080D8
:102A000080800000001F202020201F008080008088
:102A10008000000080FFA12020110E000000008037
:102A200080808000000E112020A0FF808080800028
:102A30008080800020203F21200001000000808055
:102A4000808080000033242424241900008080E04A
:102A5000808000000000001F202000008080000017
:102A600000808000001F202020103F2080808000F8
:102A70000080808000010E30080601008080008008
:102A8000008080800F300C030C300F00008080002D
:102A9000808080000020312E0E3120008080800058
:102AA0000080808080818E70180601000080808008
:102AB000808080000021302C2221300000000000A6
:102AC000807C020200000000003F40400002027CC7
:102AD000800000000040403F0000000000000000B7
:102AE000FF00000000000000FF0000000C2B0008A9
:102AF000000000202C00000062220008382B000893
:102B00002C0000205C06000072220008010000007A
:102B100010000000000000000024F400000000008D
:102B2000AED580A83FD30040A1C8DA1281CFD9F139
:082B3000DB40A4A68D14AF00E8
:040000050800019559
:00000001FF
